:10200000008000206D300000553000005530000089
:1020100000000000000000000000000000000000C0
:10202000000000000000000000000000553000002B
:10203000000000000000000055300000C13000002A
:10204000553000005530000055300000553000007C
:102050005530000055300000553000005930000068
:1020600055300000C92F00005530000055300000E9
:10207000553000005530000055300000553000004C
:10208000553000005530000055300000553000003C
:1020900000000000553000005530000055300000B1
:1020A000553000005530000055300000553000001C
:1020B0000000000010B5064C2378002B07D1054B1B
:1020C000002B02D0044800E000BF0123237010BDA4
:1020D0001001002000000000545B000008B5084B10
:1020E000002B03D00748084900E000BF07480368F9
:1020F000002B03D0064B002B00D0984708BDC046EC
:1021000000000000545B00001401002008010020C2
:102110000000000008B5024800F030FE08BDC046CF
:1021200030010020F7B50E1C0190171C0025164B3E
:10213000E95C0E2924D0154C201C00F0C4FD372288
:10214000201C052100F0B7FD201C391C00F0B6FD55
:102150000199201C01F06AFA5A22201C082100F083
:10216000AAFD201C032100F0A9FD311C201C01F058
:102170005DFA201C00F07AFEC820400000F0AEFF9F
:102180000135082DD3D1F7BDB85000003001002033
:10219000B02208B50421131C054800F0DFFD054BF3
:1021A000B020197802F046FE034B187008BDC046F7
:1021B00030010020010000202C01002073B5002414
:1021C000194E221C3378194D5A431BB20093184BF9
:1021D00012B21B5D00210193281CB02300F0ECF922
:1021E000281C00F043FE0134C82000F077FF082CC3
:1021F000E6D19620800000F071FF3378221C5A430C
:102200001BB200930E2312B200210193281CB023AD
:1022100000F0D2F9281C00F029FE013CC82000F093
:102220005DFF002CE9D173BD2C010020300100209E
:10223000B8500000F0B5002785B00297594B029FB7
:102240001B78594D7B4300262B700024029F0123ED
:102250001F400397554803D021B232B2002706E051
:10226000211C321C0A310A32039F09B212B20097B4
:10227000143400F027FBB42CE8D11636B02EE4D18C
:102280004A4C297800272231201C49221D2300971F
:1022900000F018FB29780E2622310096201C5822C7
:1022A0001D2300F00FFB2978201C163158220B2328
:1022B000009700F007FB29783C2214310092201C83
:1022C00058220523019700F077F9297850231B3114
:1022D00000930196201C6C221E2300F06DF92978D2
:1022E0005022023100920196201C6C220A2300F039
:1022F00063F92B787822191C14311C330092201CAE
:102300006E22019700F08CF92B786E26191C1C3177
:102310002533201C78220096019700F081F92B7854
:102320003C2225330092191C321C0197201C00F01E
:1023300077F9039A2B78BA4212D09BB2191CAA26BD
:1023400016310733201C009601978F2200F068F9A0
:102350002B78201C191C163125330096019706E0B6
:10236000039F1633AA2200920197201C191C8F226A
:1023700000F056F90D4C201C00F078FD962040002E
:1023800000F0ACFE201C0E2100F03DF9201C00F0F6
:102390006DFD029F01370297102F00D04EE705B068
:1023A000F0BDC04600000020383E00203001002073
:1023B00070B5184D2B7801332B70FFF7FFFE164CCC
:1023C0000E21201C00F01FF9201C00F04FFDFFF72C
:1023D00031FF0E21201C00F016F9201C00F046FDF4
:1023E00003220E480E49FFF79DFE0E21201C00F02F
:1023F0000AF9201C00F03AFD2E7801210E40201C25
:10240000002E02D000F088FC03E0311C00F084FCB8
:102410002E7070BD393E002030010020A450000015
:10242000AE500000F0B587B01E1C0CAB071C151C8D
:1024300000201B5E0DAA12880C1C591B0492CA179F
:1024400089185140321BD01712184240914208DDC2
:10245000321C01211E1C131C221C01912C1C151C5A
:1024600001E000220192B44205DD2A1C1D1C131C50
:10247000221C341C161C321B92B202925A1BD1171A
:10248000501848400590029802B2D10F8A18521095
:1024900092B200929D4202DA012103911FE0154A97
:1024A00003921CE001983B6800281BD01969381C76
:1024B0008C46221C291C049BE04700980599431A6E
:1024C0009BB29AB2009212B2002A06DA02990398DD
:1024D0005B182D189BB22DB20093013424B2B44284
:1024E000E0DD05E01A69381C9446211C2A1CE2E74D
:1024F00007B0F0BDFFFF0000704710B50468A46886
:10250000A04710BD37B506AC258804680095246B3C
:10251000A04737BD37B506AC258804680095646BC5
:10252000A04737BD73B506AC0025665F07AC2588AC
:10253000046800960195A46BA04773BD7047F0B581
:1025400085B01F1C0AAB1B88161C03930368013F50
:10255000DB68041C0D1CBF199847039A23683FB21F
:10256000019200971F6A201C291C321C2B1CB847A3
:102570002368201C5B6A984705B0F0BDF0B585B0B4
:102580001F1C0AAB1B88041C039303680E1CDB682A
:10259000151C9847039922687B1E019100959B1991
:1025A000176A201C311C2A1C1BB2B8472368201C48
:1025B0005B6A984705B0F0BDF0B587B003930CABEC
:1025C0000E1C171C0022995E0DAB1B88049105930D
:1025D0000368041CDB689847351C039BF2182368CA
:1025E00095420BDA0599201C00919A69291C9446A2
:1025F000049B3A1C0135E0472DB2EEE75B6A201CD4
:10260000984707B0F0BD37B50C24035F0E25445F33
:102610000268019100940021946B0A1CA04737BD09
:10262000F0B585B002930AAB0E1C00215F5E0BABC8
:102630001B88151C0393029B041C02689E420BD14D
:10264000BD4202DD2B1C3D1C1F1C03997B1C5B1B28
:1026500000911BB2176B0EE0BD4211D1029B9E424E
:1026600002DD331C029E0293029B03990133009109
:102670009B1B576B1BB2201C311C2A1CB8470FE058
:10268000D3689847039A2368019200971F6A201C19
:10269000029B311C2A1CB8472368201C5B6A9847A0
:1026A00005B0F0BDF0B585B01F1C0AAB151C0E1CA3
:1026B0000022995E0BAB1B88039102930368041CF4
:1026C000DB689847029923680091DA69201C9446D8
:1026D000311C2A1C3B1CE04702992368039A009195
:1026E000D969013A52198C46201C311C3B1C12B28C
:1026F000E047029A236800929969201C8C462A1CA4
:10270000311C039BE047029A2368013F0092BE19E7
:1027100031B29F69201C2A1C039BB8472368201CE8
:102720005B6A984705B0F0BD7047032319404176B6
:1027300003894289012904D0032902D08381C281FF
:1027400001E08281C381704710B50A4C4281C28189
:1027500001220023083401818181514243600460D9
:102760004376038243820276C18281828276C37677
:10277000C36110BDC0500000F0B591B0049316AB1A
:102780001B780D920E9317AB0027DD5F18AB1B88EB
:102790000F95049D09930122ABB2D21A5B005B42F4
:1027A00092B29BB2041C0C9105920B9300270897E0
:1027B000089D049F2BB2BB4200DB81E0059D2BB23C
:1027C000002B0CDB049B013B1FB20B9B04970233D5
:1027D000059F9BB29DB2DB199BB20B950593089D9B
:1027E000059FADB26E00B6B2331C03330695FB18DD
:1027F0000E9D9BB20A960593ED072DD50C9F0F9960
:10280000BBB20D9D04988EB2069A191CAFB201316D
:1028100085B2511803977A1B099F701C009727688F
:1028200007936B00C318B86909B212B21BB2844691
:10283000201CE047079F039AED1929B2069D013A33
:10284000521B0A9F099D2068F31CFB18009586699E
:1028500012B21BB2201CB0470E9FBF072DD50C9D96
:102860000F99ABB204980D9D8EB2069A191CAFB2A7
:10287000013985B2891A03977A1B099F701C00974A
:10288000276807936B00C318B86909B212B21BB26C
:102890008446201CE047079F039A7D1B29B2069DB2
:1028A000013A521B0A9F099D2068F31CFB180095F2
:1028B000866912B21BB2201CB047089F013776E729
:1028C00011B0F0BDF0B587B01D1C0CAB1B88041C0B
:1028D000059303680F1CDB68161C98470598216850
:1028E000ABB200908869F21A5B0001338446391C50
:1028F000201C12B21BB2E047032300930023019374
:10290000059B201C0293391C321C2B1CFFF734FF43
:102910002368201C5B6A984707B0F0BDF0B595B0FE
:102920001E1C1AAB1B88041C0A931BAB1B88069148
:1029300004931CAB1D78C3690992002B00D0B1E051
:102940000C20235E8B4200DC36E10E21635E934255
:1029500000DC31E106236B43069AD318002B00DC20
:102960002AE10998EB00C318002B00DC24E1E37E88
:10297000002B03D1AF2E01D90136F6B22368201CFB
:10298000DB68984705235E4300210F960D9308915D
:10299000089A0F9853B2894A06991218D25C9BB2D2
:1029A00007936B4389B20B92099ACB1896B29BB2EC
:1029B0000E93331C08339BB205911093371C0C9671
:1029C0000B9BDB0714D52068012D09D1079A059BC5
:1029D000D118036909B29C463AB2201C0A9B17E041
:1029E0000E9A33B211932BB211B200930A9A19E0E6
:1029F000049B0A9883421BD02068012D0AD1079AB4
:102A0000059BD118036909B29C46049B3AB2201C6D
:102A1000E0470DE00C9B0E9A1BB211B21193049A81
:102A20002BB2009301924269201C9446119AE04710
:102A30000B9B0C985B080B9301374319109976197F
:102A40009BB2BFB2B6B20C938F42B9D1089B01338F
:102A5000DBB208930D9B013BDBB20D93002B97D1AA
:102A6000049A0A9B9A4200D1A2E02268012D0AD161
:102A70000498059900900531956909B2201C099ABE
:102A80000823A84794E005216943059B0498591839
:102A90002BB2ED0001900095556909B2201C099AEE
:102AA000A84785E01A7A5968B61AF6B21B68F6008C
:102AB00076183288F07871791193B378B6790592E7
:102AC0000C9312900D910E96012D06D90E9A4EB2CE
:102AD00053B29BB2B6B2079302E0002307931E1CC9
:102AE0002368201CDB686E439847069880B28619DD
:102AF000B6B2109600260B9006960496129AF3B280
:102B0000934255D2099B07989BB20F9333186B439E
:102B10000F99109ACB189BB213930892002706982E
:102B2000FBB20C991A18D2B28B423BD2510707D193
:102B3000059B0598119A0133125C9BB20492059390
:102B4000049843B2002B22DA2068012D11D10D9A8E
:102B50000B9B51B259180E9B79185AB20F9B09B2B0
:102B60009A180369B2189C4612B2201C0A9BE047CF
:102B70000DE0089A139B11B21BB20A9A03932BB271
:102B8000009301924269201C9446039AE0470498FE
:102B900008994300DBB204934B199BB201370893A9
:102BA000BFB2BCE74318DBB201360693B6B2A5E765
:102BB0002368201C5B6A984715B0F0BD10510000D7
:102BC000F0B5C26987B0041C0B1C002A28D10A2961
:102BD00003D1037E0282DB0029E00D2968D0817ECB
:102BE000007E00290DD01025615F062545434D1953
:102BF0000C26A15F8D4204DD618A2282C200521838
:102C000062821225625FA58A02900095E58A1027EC
:102C1000E15F0195201CFFF781FE227E062343E041
:102C20000A2908D100230382927A037E5343628AE1
:102C30009B1863823CE00D293AD0157AA94237D31C
:102C4000517A994234D35D1B5668ED00AD19A978CD
:102C5000E878002926D0002824D06F79A67E059731
:102C6000207E002E12D01027E65FB446059E77B274
:102C7000791841430C27E65F6144B14206DD00212B
:102C80002182927A618A4243521862821022A15EA6
:102C90001226A25FA68A02900096E68A201C019660
:102CA000FFF73CFE2A79237E5343228A9B18238216
:102CB000012007B0F0BD018242827047002900D197
:102CC000012101767047C1828182704770B5458CC1
:102CD0008D4220DD848C94421DDD6D08CC0F6A434B
:102CE000CE070CD4611849105218801880304179F1
:102CF0000F2211401A010B1C134343710BE06118A2
:102D0000491052188018803041790F2291431340A6
:102D10000A1C1A43427170BD70B5451C041C0E1C80
:102D2000E87F012100F0ACFBA16A0E4300218E4236
:102D300000D01421084E301C00F014F9301C002182
:102D400000F010F9A16A4B424B419B01A362E87F5E
:102D5000002100F095FB70BD443E002038B50D1CED
:102D600011B21AB2041CFFF7EFFC034B201C08330E
:102D70002360631CDD7738BD1056000038B5451C54
:102D8000041C0021E87F00F07BFBE87F012100F0BC
:102D90001DFB104800F0BEF8231C00212C331970D5
:102DA0002389201C63846389E184A3844023A36274
:102DB00058222D3002F0D9F8E38C0F22190113406C
:102DC0000B43201CF222D9B29201853002F0CDF8DB
:102DD000012038BD443E0020F7B5041C0091161EAA
:102DE00041DB0A21435E9A423DDA421C0192D07FC8
:102DF000012100F045FB1C4DA36A281CD9B200F04C
:102E0000B1F8A16A01364B424B419B01A362F1B27A
:102E1000281C00F0A7F8009F009A0821635EBE1AE4
:102E2000DA0FD3185B109E4205DA3978281C00F0BF
:102E300099F80137F0E70822A35E281CDA0FD318AF
:102E40005B1000219E4203DA00F08CF80136F2E7B5
:102E500000F088F80021281C00F084F8019B002174
:102E6000D87F00F00DFBF7BD443E0020F8B50821E7
:102E7000435E041CDF0FFF187F10BFB20025A38C38
:102E80009D4222DA0A22A35E9D421EDCE38C0F22C1
:102E90001901261C13400B432D36D9B25822301C81
:102EA00002F063F80821635E3AB2D90FC9184910DD
:102EB000694361188531301C02F04EF82A1C201C31
:102EC000311CFFF789FF0135D9E7F8BD437A002BA4
:102ED00004D18372C372C36001234372704730B55B
:102EE00085B0041C02AD00680291039200F08AFCD8
:102EF0006B79E179227A00932068002300F028FDA5
:102F000029792068029A00F04DFC206800F070FCDE
:102F100005B030BD70B5041C1826FFF7D7FF207927
:102F2000331C43430D4D0821EB18595600F0D8FAD5
:102F3000A079331C43430821EB18595600F0D0FA0E
:102F4000607908214643AD19695600F0C9FA044B6F
:102F5000201C06CBFFF7C3FF70BDC04640560000E3
:102F60003C3E002008B5006800F055FC08BD00009C
:102F70000F4B104A10491A6000225A711A710F4BF8
:102F800019601C2119711E2199711D21597101218E
:102F90005A721A72D9710A4B5A720A4AD9711A6056
:102FA00024221A7126229A7125225A7119727047A9
:102FB0003C3E002000093D00383F0020443E0020F8
:102FC000543E00203C3F002008B5024800F03AFD86
:102FD00008BDC046643E002013B5114C1149201CA9
:102FE00000F070FB1049114800F06CFB10491148CB
:102FF00000F068FB1049114800F064FB10491148CB
:1030000000F060FB1049114800F05CFB03230093C3
:1030100001230193211C00220D4800F0EFFC13BD99
:103020002C3F002000080042000C0042303F0020EE
:1030300000100042343F002000140042283F0020CE
:1030400000180042383F0020001C00423C3F002096
:10305000643E0020FEE7000008B5034B1B68002B10
:1030600000D0984708BDC046403F002038B50F4902
:103070000F4CA14204D100F04FF800F095FA0BE09C
:103080000C4D8D42F7D00023CA18E818A24204D292
:10309000006804331060F7E7FEE79042EBD0064B80
:1030A000064A9342E7D2002204C3F9E70000002059
:1030B00010010020585B0000100100204045002056
:1030C00008B500F026F8002801D100F017F808BD77
:1030D000014B18607047C046403F002070B5041E89
:1030E00008D0054B1D681E1C00F012F833685B1BEE
:1030F000A342F9D370BDC046443F002008B5034B3E
:103100001A6801321A6000F0A3FA08BD443F00209B
:10311000704700207047000070B5494A1E2153686F
:1031200002208B430343474953608B6908242343A0
:103130008B61454C454B9C829C8A20439882101C95
:10314000DA689407FCD5424A012414701478E50724
:1031500004D53F4C647864B2002CF7DB0124946002
:10316000547864B2002CFBDB3A4D394C65605478DE
:1031700064B2002CFBDB8225354CED016580547870
:1031800064B2002CFBDB02249C84DC68E606FCD5E0
:10319000314D2E4CE562DD682C4CEE06FBD5A58C3E
:1031A0002E4E3543A584DD68284CEE06FBD5A58C54
:1031B00002263543A584DC682506FCD5234CE4684B
:1031C0006606F8D5DC68E506FCD5002494605478E2
:1031D00064B2002CFBDB224D1D4C656055781C4C05
:1031E0006DB2002DFADB1E6A1E4D35401D621D6A50
:1031F0008026B5431D620323A3601B4B6360537895
:103200005BB2002BFBDB00230B72184A4B728B72F4
:10321000CB72174BFF211A60164B174A1B681268B6
:103220005C01D20E214011439A06520F12020B1C70
:103230001343124A1385436880221343436070BDD1
:1032400000400041000400400C060000000800405F
:10325000000C004001050100B905FF7D040A0000D3
:1032600000070300FFFCFFFF03060100006CDC0207
:1032700004000020246080002060800000400042A4
:10328000314BFA21186810B5890001F085FD2F4BEC
:103290000138984224D82E4A2E4B5060186AC0211B
:1032A0000002000A09060143196200240721946004
:1032B0001160196A80220902090A12060A431A6279
:1032C000254BFC211A6A0A431A62196AFC229201F0
:1032D0000A431A62196AA022D2020A431A6200E063
:1032E000FEE7201C0021013400F070F8142CF8D106
:1032F0001A4C63785BB2002BFADB194B6380194BD5
:103300005A7ED209012AFAD0E422D2009A803F22C2
:10331000DA70597E134AC9090129FAD0C0235B012A
:1033200000201361907000F023F863785BB2002BEB
:10333000FBDB0D4A094B5A800C4BDA79D209012A82
:10334000FAD041225A7010BD04000020FFFFFF0098
:1033500010E000E000ED00E000040040000C004040
:103360001E40000000400042214000000048004292
:1033700000B5144A517E131CC9090129F9D001383E
:10338000042813D81969104A0A401A615A780F2183
:103390008A4301F0F7FC030509070300012102E05D
:1033A000032100E002210A435A700AE01169F02368
:1033B0001B050B43136153780F218B4302210B43F1
:1033C000537000BD00400042FFFFFFF010B518240D
:1033D000021C201C5043274B1818007A40B20130C1
:1033E00046D0032944D8081C211C01F0CBFC023331
:1033F0001121624398569A18C3011F4852681B183E
:1034000099184031022008700121914059602FE045
:103410006243985618499A185268C3015B18991864
:1034200040310620087001219140596099611FE0E8
:1034300051435A56104859184B68D2011118C818F0
:103440004030062404700120984048600B4952180F
:1034500050600DE0624398569A18C30106485268BE
:103460001B18991840310220087001219140996081
:1034700010BDC046405600000044004110440041C9
:1034800018235843134AF0B5131808241C57013465
:103490001FD08256104ED2015D6801249019231C62
:1034A0008668AB401E420BD10E1C771EBE414019F0
:1034B00034404030A50004780426B4432C43047003
:1034C000002903D105495218536002E0024E9219B7
:1034D0009361F0BD4056000000440041104400419B
:1034E00018224243F8B52D4D0824AA181457031C7E
:1034F000621C50D0481C00240C284CD801F042FC1F
:10350000071E1E1E1E1E1E1E1E0A0A0A0A00012477
:10351000644240E0092902D1181C002103E00A2975
:1035200004D1181C0221FFF751FF23E000240B29CE
:1035300031D1181C0121FFF749FF2CE01822534319
:10354000EA185268EB560120141C04405508DB01B0
:10355000002C11D0124C1B195D1930352E780C013E
:103560000F21314021439A18C9B229704032137893
:103570001843107000240EE0094E0F279B195D19A7
:1035800030352E789A18BE433143C9B22970403283
:10359000137818431070201CF8BDC0464056000038
:1035A00000440041FEE7704710B5FFF769FE01F0E7
:1035B000A3FCFFF7F8FF0120FFF790FD084C201C4B
:1035C00000F0BEFC201C00F033FDFEF7A3FDFEF76B
:1035D000EFFE044B002BFAD000E000BFF7E7C04637
:1035E000F743002000000000F7B58A18061C0D1CE8
:1035F00001920C1C019B671B9C4207D03368217809
:103600001B68301C984701340028F3D1381CFEBDDC
:1036100038B5051C0C1C081E07D001F015FD2B68E1
:10362000021C5B68281C211C984738BD08B5FFF7B1
:10363000EFFF08BD014B18607047C046080000202E
:10364000024B012252421A607047C0460800002017
:10365000154A1368581C25D0013B1360002B21D15B
:1036600072B6124A124B04329A4207D8BFF34F8FF8
:10367000104A114BDA60BFF34F8F11E00F4B197DE9
:10368000C807FBD5188B2021FF3192085200014357
:103690001983DA610A4A1A801A7DD107FCD5E5E759
:1036A000C046FDE77047C04608000020002000002B
:1036B000030200000400FA0500ED00E000400041B4
:1036C00002A5FFFF01607047F7B508AC26780468D3
:1036D0009D1E27686C1EA541ECB2920705683A430F
:1036E00027063A432A600268072529405068B50139
:1036F000002C00D05C03294301430C435460F7BD08
:1037000030B50368C0251C68AD0312052A4022436A
:10371000C024A402090421401143196003685A68B7
:1037200014435C6030BD036801211A680A431A60C3
:103730000268116801231942FBD1D1691942F8D1FD
:103740007047036802211A680A431A600268D36945
:103750009907FCD4704703681A7ED10702D41A7EF9
:103760009107FCD57047036800225A8370470368AD
:10377000187E4007C00F70470368187EC009704765
:1037800003688022197E52420A431A767047036802
:10379000188DC0B2704703681A7E01200242FBD028
:1037A0001985704770B5036801268D07ED0F31400C
:1037B0001C686D07090729432143196004685100FB
:1037C000034801F0E9FA0138C0B2207370BDC04669
:1037D000006CDC02036801211A680A431A6002685F
:1037E000116801231942FBD1D1691942F8D1704700
:1037F000036802211A680A431A600268D3699907AC
:10380000FCD470470368DA699107FCD41A68022176
:103810008A431A60704703689A6A520A5202114337
:10382000996203681A7E5107FCD5986AC0B2704746
:103830000368244AF0B5934211D0234A934211D031
:10384000224A934211D0224A934211D0214A9342F4
:1038500011D0214A934233D119220E230DE01422B4
:1038600009230AE015220A2307E016220B2304E0AD
:1038700017220C2301E018220D23DEB21749012084
:10388000C024B04064009B08085103259B00C0245D
:103890005B18A4002E401F59F500FF26AE40B74329
:1038A0003E1CC027AF403D1C35431D518023DB012A
:1038B0001A430B4B08605A805A7852B2002AFBDB3D
:1038C000F0BDC04600080042000C0042001000425B
:1038D0000014004200180042001C004200E100E019
:1038E000000C0040F8B5041C151C0E1C1F1CFFF733
:1038F0009FFF201CFFF717FFB1001C220A40690739
:103900002368090C0A431A60226884239375012EE8
:103910001AD10821012D00D110210C4B79431868D0
:10392000C00001F039FA236807219A890140D204C6
:103930004903D20C0A439A8123680004C20C988977
:10394000400B400310439881F8BDC046040000209E
:10395000F7B5019308AB041C1F780D1C161CFFF76C
:1039600039FF201CFFF764FFBF070C221743C0225A
:10397000920336051640C02292022D04236815409A
:1039800001993E43354307221D600A408021236888
:1039900089020A435A602268D3695907FCD4F7BDEB
:1039A0000120704708B50368014ADB69984708BDE4
:1039B0001304000010B5041C0069FFF7B4FE201CBE
:1039C000143001F066F810BD08B50069FFF7C3FEBA
:1039D00008BD08B5143001F077F808BD08B51430FB
:1039E00001F07BF808BD08B5143001F059F808BDA6
:1039F00008B50069FFF7CFFE012008BDF7B51D1C13
:103A000008AB1B78041C009309AB1B78161C0193B0
:103A100000234360FA239B008360094B0F1C08338B
:103A20000360143001F016F8009A231CC03327619C
:103A30009A70019A1E705D70201CDA70FEBDC0463F
:103A4000485A000010B5041C0069FFF790FE0028DA
:103A500007D02069FFF79BFE011C201C143001F0E9
:103A600006F82069FFF788FE002805D02069FFF7D7
:103A700087FE2069FFF777FE10BDF023081C184071
:103A80003038434258417047F0231B0119408023CE
:103A90009B0099420CD0C0239B00994206D0802302
:103AA0005B000520994204D0002002E0072000E0DE
:103AB000062070470F231940012905D002394B42D7
:103AC0004B410220C01A00E000207047F0B5031CF3
:103AD00085B00391C033041C182718783B1C43435E
:103AE0001B4E0821F3185956151CFFF7F9FC231C2F
:103AF000C133187808214743F6197156FFF7F0FCD7
:103B000001210A1C039B2069FFF7ECFE291C201CE5
:103B1000FFF7BAFF291C071C201CFFF7CBFF291C4D
:103B2000061C201CFFF7A9FF391C0090331C2069DC
:103B30000122FFF7C9FD231CC3331978013B1A7812
:103B40002069FFF7DDFD2069FFF7FBFD05B0F0BD43
:103B5000405600007047000070B582291ED1C2B2E5
:103B60002A495301CB189D69294C80012C40C0255E
:103B7000AD052C439C61274C0832201858610B6816
:103B8000520199180C798020404220430871D15C81
:103B90007020814330200143D15435E0002933D1D6
:103BA000C2B21A495301CB189E68194DC0242E4049
:103BB000A40526439E60184E80010968301808321B
:103BC00058605201505C0726B043012630435054E0
:103BD0009E6935402C439C610E4C5C61505C7024A6
:103BE000A0431024204350549C680C488A1820405D
:103BF000802464032043986098684021800B8003F0
:103C0000986053790B43537170BDC0460044002047
:103C1000FFFFFF8F5440002018420020FF3F00F0BC
:103C2000EFF3108303600123436072B670470368AB
:103C3000002B02D162B6BFF36F8F704737B50569AD
:103C4000041C6846002D12D1FFF7EAFF019B013BDF
:103C500003D3621DD57FEDB2F9E768460193FFF704
:103C6000E6FF0020854217D0206AE36913E0FFF7E2
:103C7000D7FF019B0025013B04D3221C3432157869
:103C8000EDB2F8E768460193FFF7D1FF00208542C7
:103C900002D0206BE36AC01A3EBD0000436810B535
:103CA0001A68037A01215B01D318FF339A7A0A4319
:103CB0009A72037A42685B01D318C2689C689104C7
:103CC0000B4A090922400A439A60037A42685B0161
:103CD000D3189A684021920B92039A6043681A683D
:103CE000037A08335B01D3181A790A431A7110BD9D
:103CF000FF3F00F0F7B50569041C0E1C171C684651
:103D0000002D1FD1FFF78CFF019B013B5A1C06D0F1
:103D1000621DD17F5A1E00293AD0131CF6E768466F
:103D20000193FFF784FF0025E369BD4235D0226A85
:103D3000934232D25A1CE261A269D3181B787355A0
:103D40000135F1E7FFF76CFF019B013B5A1C08D0DE
:103D5000221C343215785A1EEDB2002D18D0131CD7
:103D6000F4E768460193FFF762FF0025E36ABD426E
:103D700026D0226B934241D322E0621D0021D177ED
:103D800030321678581E8E4214D1031C5A1CF4D1BE
:103D900068460193FFF74BFF38E0226A934235D122
:103DA0000023E361012323616846FFF739FF019B8C
:103DB000013BEBE71170201C0193FFF76FFFF6E763
:103DC000226B934222D10023E36223616846FFF70E
:103DD00027FF019B013B5A1CDAD0221C3432002100
:103DE000117001321678581E8E4201D1031CF2E781
:103DF0001170201C0193FFF751FFEAE75A1CE262A1
:103E0000A26AD3181B7873550135AFE7281CFEBD95
:103E100037B54368027A1B68083252019A18041CAD
:103E2000D0790123FF21184253D0D371A06865696E
:103E300062680140002D20D14901521891686361E8
:103E40008904890C2162A16A68465160621DD3779A
:103E5000FFF7E6FE019B013B5A1C33D0221C343293
:103E60001178581EC9B20132002903D001930123F1
:103E7000137023E01170031CEEE74B01D3189A680E
:103E8000A5699204920C22630022626168465D601B
:103E9000FFF7C6FE019B013B01E011702B1C591C72
:103EA00010D0221C343201201070621DD17F5D1EA3
:103EB000C9B230320029F0D0019310706846FFF784
:103EC000B6FE06E068460193FFF7B1FE201CFFF73F
:103ED000E5FE37BD37B500236C46E3710734201C7F
:103EE0000D1C00F04DFE2B681818286000F0F0FE45
:103EF000211C00F0A7FE2B681818286020783EBD12
:103F000003290BD10D4BB2221B685200985C802113
:103F1000494201439954022168220CE001290CD145
:103F2000064B92221B685200985C80214942014353
:103F3000995402212822FF329954704700440020EE
:103F400038B5304B00240121051C20201C70FFF7E0
:103F50003DFA20200121FFF793FA2B4B1F2001216E
:103F60001C70FFF733FA1F200121FFF789FA274B56
:103F70002021DA6901200A43DA61254B06241A78E8
:103F800002431A70234B0F22197891431970197844
:103F90002143197020490C782043087019780A4091
:103FA0001A701A7860210A431A701C4B1C4A5A80F6
:103FB0005A78D209FCD11B48FFF78AF81A4C201C0A
:103FC00000F098FE201C00F0AFFE23687F221978D5
:103FD0000A401A701A7804210A431A701A890C21AF
:103FE0008A431A81C121114A890050580002000AEF
:103FF0005050802111601A7802210A431A7001235F
:104000002B7038BD14420020FC4300200004004007
:10401000584400413C44004159440041000C0040D8
:10402000064000002D4A00000044002000E100E0AE
:104030000078002810D0094B01211B681A898A4397
:104040001A811A8B08210A431A831A8B04210A4306
:104050001A83034B00221A607047C04600440020B8
:10406000044500200F4B9A69920B92039A611B68DA
:104070000222FF331A7298798022524202439A71C7
:104080001A7A9007FCD5084B081C997A7F221040B9
:10409000914301439972997A802252420A439A725B
:1040A0007047C046004400200050004110B50B7915
:1040B0000C1C002B0BD1081C00F070FD002804D153
:1040C000094B9A69920B92039A6101200BE000F070
:1040D000FFFD211C00F0EAFD0028F6D1024B9A6991
:1040E000920B92039A6110BD00440020F8B50D1C9C
:1040F000832A18D1CAB238495301CB189C69374872
:10410000AD012040C024A405204398613448083202
:1041100045195D610B685201D15C702081434020DC
:104120000143D15456E0022A45D1382000F08EFCDC
:104130002C4B294F8026036076000023421D03622A
:1041400003614361C36147608560C660D3772F32E6
:10415000041CC36203631370301C537000F0F2FE42
:10416000A061301C00F0EEFEFF232A1C1A40520111
:10417000A062BF18B968194A07260A40C0218905FC
:104180000A43BA60A168626819401268083149019F
:10419000885CAD00B043032630438854A168626850
:1041A0000B405B01A169D3185960201CFFF776FD15
:1041B0000D4BEC500EE0032A08D10B4B8D00E85854
:1041C000002807D00368DB68984703E0081C111C2F
:1041D000FFF7C2FCF8BDC04600440020FFFFFF8F80
:1041E00054400020805A0000D843002038B5051CF8
:1041F0000124064BA200D258002A06D0211C281CFC
:104200000134FFF773FFE4B2F3E738BD0C00002080
:1042100008B5084B8A00D058002803D003689B6873
:10422000984706E0C9B2044B4901591888688004D0
:10423000800C08BDD84300200044002010B50C1CA1
:10424000FFF7E6FF00280CD0064BE1B21B680831EF
:10425000490159184A7980235B4213434B71022369
:10426000CB7110BD0044002070B5CAB2134B144886
:10427000540189015918031959609D681149083280
:1042800029408025AD022943996099684026890B11
:10429000890399600368510159180D7935430D71EF
:1042A0005101591889794D06FAD551015918C97922
:1042B000CD07FAD50419A068C0B270BD184200201D
:1042C00000440020FF3F00F038B50C4B141C1B6865
:1042D0000D1CFF335A7940210A435A710021FFF720
:1042E000C3FFA04200D9201C0023A34204D0044AEB
:1042F0009A5CEA540133F8E738BDC0460044002018
:104300001842002010B5C9B20C48490143189A68F8
:104310009204920C3F2A08D9141C9A68403CA404C9
:10432000920BA40C9203224302E09A68920B920330
:104330009A6041188868C0B210BDC0460044002091
:10434000F0B51C1C2F4B85B01B68061C0D1C02927F
:10435000002B51D02C4F3978C9B2002902D11F202F
:10436000FFF78EF864233B70284BAA00D058002832
:1043700005D0036802995B68221C984740E0301C16
:10438000291CFFF745FFA04204D2301C291CFFF76F
:104390003FFF041C291C301CFFF7B4FF1C4FE9B27F
:1043A0004A010191396803928B18FF335A7A01212F
:1043B0000A4318495A72AB01C9180298221C00F02E
:1043C000CBFD002C1BD0301C291CFFF721FF00283F
:1043D00015D1019B3A6808335B01D3181979402045
:1043E000014319710121D97103995318FF339A7A46
:1043F00001210A439A7202E00120404200E0201CA1
:1044000005B0F0BD04450020FC430020D843002047
:10441000004400201842002013B56C460734221CCB
:104420000123FFF78DFF012801D1207801E0012051
:10443000404216BDF0B51C1C3F4B85B01B680E1CDE
:104440000292002B6AD08023DB019C4266D83B4D50
:104450002978C9B2002902D12020FFF711F864237E
:1044600000222B700092002C56D0354DF7B22B68ED
:1044700001933B1C0833019A5B01D3189B79DB093C
:104480001AD0304B3049186800F086FC2F4B1721AA
:10449000584300F081FC3B1C0833019A5B01D318A0
:1044A000DB799A0708D42A4B9A5D002A38D1421E3C
:1044B000002835D0101CEEE7254B00229A55251E0A
:1044C000402D00D94025234AB301D318181C029966
:1044D0002A1C039300F040FD194A7B01D318039A6C
:1044E000A9045A619A69890C920B92030A439A6152
:1044F0003B1C019A08335B01D3180222DA71597907
:10450000802252420A435A71009B029A5B19521947
:104510000093641B0292A6E700980BE0012008E0DC
:1045200001229A557B01ED18AB69101C9B0B9B0374
:10453000AB61404205B0F0BD0445002014420020AC
:10454000004400200400002040420F0070110100D0
:104550004C4000205440002070B50E4D1C1C8B01B7
:10456000ED18281C0E1C111C221C00F0F5FCF6B2E4
:104570000949760189194D618A69084B201C13404D
:104580008B618B69A2049B0B920C9B0313438B6181
:1045900070BDC0465440002000440020FF3F00F0A2
:1045A000F7B5114B01901B780F1C141C002B19D16F
:1045B0000E4B1E78002E01D1151C08E00C4D0D4845
:1045C0002E888019361900F0C7FC2E800AE0002DD5
:1045D00008D0BA192B1C01980021FFF7BDFF36182F
:1045E0002D1AF4E7201CFEBDF6430020F443002002
:1045F0004A400020493F0020F8B50E1C00AF151EB0
:10460000012D28D9D31DDB08DB006A46D21A954656
:10461000081C00F019FD01306C4640000323207097
:1046200063700222AA420ED23378002B0BD0511CA9
:10463000C9B20136A354A94204D000230232635404
:10464000D2B2EFE72A1C0548211CFFF7A9FF431E41
:104650009841C0B200E00020BD46F8BDF7430020FD
:1046600008B5044B00221A70034B04491A88FFF75F
:1046700097FF08BDF44300204A400020493F002036
:10468000F0B5204A87B001230026009102A91370DB
:10469000051C0296FFF71EFC03AC092701903A1C8B
:1046A000201C311C00F061FC02236370A023E37125
:1046B000FA232372029B0122DB196380019B627142
:1046C0002371104A009B27701670BB4205D1281C2D
:1046D000211C1A1CFFF764FF11E00B4B01221A701A
:1046E0000A4B211C3A1C281C1E800296FFF758FF1B
:1046F000281C02A9FFF7EEFB281CFFF7B1FF0120E1
:1047000007B0F0BDF6430020F44300204A400020EB
:1047100070B5CE788AB0051C0C1C022E08D1C98851
:104720002348FFF7ADFF031C581E8341D8B23DE07C
:1047300000F0CEFA211C00F09AFA002803D0C3172B
:104740001B1AD80F32E0012E04D1E2881949112A30
:1047500027D823E0032E29D1A278002A05D11649B3
:10476000E2880B78934219D81BE0022A03D1A27980
:10477000281C124904E0012A05D1A2791049281CFD
:10478000FFF73AFF12E0032A10D100F0A1FA01A9C5
:1047900000F07DFAA279281C01A9F1E7D2B2002A23
:1047A00000D10A78281CFFF7FBFE01200AB070BD7B
:1047B000F74300209E5A00009A5A0000B05A0000A9
:1047C000905A000073B5051C48780C1C0B2878D84B
:1047D00000F0D8FA081C7728773E4306474B686FED
:1047E00000206FE0097801AA002903D111705170EF
:1047F000281C09E0002313705370334B1B78012BE6
:1048000000D11370281C002102234FE08A78002376
:10481000012A04D101AA137053702C4BEEE72A4AE7
:10482000137049E08E78012E07D1284B01AA002190
:104830001E701170281C331C38E0002E08D1224A4B
:1048400001231370224A9169890B8903916138E031
:10485000A178281CFFF706FC33E0281CFFF758FF5F
:1048600030E0281C00211B4A1FE00A780020D306F4
:1048700028D1281CFFF7BAFCA2781549154B022451
:104880001A600A682A23FF33D05C2043D0544A20A0
:10489000FF30145C01231C4314548A69920B920369
:1048A0008A610EE00C4A281C00210123FFF754FE08
:1048B00007E08A78084B1A60054B9A69920B9203BD
:1048C0009A61012076BDC046483F0020F543002094
:1048D0000044002004450020F8430020F8B54B4B6D
:1048E000071C1C78002C00D08FE0494D2868838B72
:1048F00019070ED5201C211CFFF72EF92B6810205C
:104900001A1CFF32917A01439172424A14600822C4
:104910009A832B689A8B50071FD504229A833E4BAB
:104920001A78002A0AD01A78013AD2B21A701B7883
:10493000002B03D120200121FEF7A2FD374B1A786E
:10494000002A0AD01A78013AD2B21A701B78002BCA
:1049500003D11F200121FEF793FD2B68FF331A7A44
:10496000D10626D510221A725A7940210A432C49C1
:104970005A710A786023381C1A4202D1FFF722FFCD
:1049800001E0FFF793FB002806D02B688022FF335D
:10499000997952420A4301E0224B20229A712B68F6
:1049A000FF331A7A500604D540221A72597A0A4304
:1049B0005A722968FE230E8C00241E40E1B2002E9C
:1049C00023D0321C012322411A4216D0221C28680F
:1049D000083252018218D079184203D1D279DA40D4
:1049E0001A4207D0104BA200D058002809D0036803
:1049F0001B6898470123A3409E430134092CDDD155
:104A000003E0381CFFF77CFAF4E7F8BDF44300201C
:104A1000004400200445002014420020FC430020F4
:104A200018420020FF500041D843002008B502483A
:104A3000FFF754FF08BDC046F7430020014A024B70
:104A40001A607047005000410044002008B500F093
:104A500079FA08BD10B50021041CA42200F085FAE3
:104A6000221CA4320023201C1360536010BDF8B533
:104A7000051CA4352E68041C0F1C701CA42100F01A
:104A8000CFF9231CA8331B68994201D0A755296090
:104A9000F8BD021C0023A432A830136003607047E5
:104AA00038B5021C041CA834A4322368126893424F
:104AB00007D0C55CA421581C00F0B2F9281C216065
:104AC00001E00120404238BD031CA433A8301A681D
:104AD0000368D01A00D5A4307047031C021CA83309
:104AE000A4321B681268934201D0C05C01E001202F
:104AF000404270473F20704713B502686B46D9713A
:104B000007335468191C0122A04716BD08B5006977
:104B10000221FFF77DFB08BD08B500690321FFF7FF
:104B20008DFB08BD38B50D1C041C131C0069032146
:104B30002A1CFFF77FFC002801D10123636038BDE8
:104B400010B5054C23685A1C04D10368DB689847EC
:104B50002060031C181C10BD84000020074A08B503
:104B60001368591C04D0012149421160181C03E04C
:104B700000690221FFF750FC08BDC04684000020F8
:104B800008B5037803490233037042220248FFF755
:104B900007FD08BD40000020F743002010B5017854
:104BA000031C42780020A12908D1212A2FD11848BE
:104BB00018490722FFF7F4FC012028E0212926D11B
:104BC000202A05D1134907221148FFF77DFB04E095
:104BD000222A10D19A780F4BDA710E4B962219685F
:104BE000D200914210D1DC7901231C400CD1FA2073
:104BF000FEF720FD0AE0232A09D1DA789B78120219
:104C00001A43054B1A6002E0FEF71AFD002010BDA2
:104C1000F7430020340000203C000020064BFA211E
:104C200089009960054900220831196004495A60D9
:104C300019611A767047C04608450020C85A00001E
:104C4000F743002070B544680E1C0025002C09D0E5
:104C50002368201C5B68311C9847002804DB2D1852
:104C6000E468F3E7281C01E00120404270BD38B53C
:104C700044680D1C002C08D02368201C9B68291C4C
:104C80009847002802D1E468F4E7201C38BD38B505
:104C900044680D1C002C07D02368201C291CDB68ED
:104CA0009847E4682D18F5E72C7038BD38B544688E
:104CB0000D1C002C08D02368201C1B68291C984759
:104CC000002803D1E468F4E7201C00E0012038BD8F
:104CD000064B0122196810B51140054805D1022480
:104CE00004700424447041601A6010BD2C450020FB
:104CF0002445002038B5041C08CC01211A78051C75
:104D00000A431A708022201C0021520000F02DF965
:104D10002B68997801221142FBD19978D140114238
:104D2000F7D15C6238BD0000134BF0B51B689903E6
:104D30005A029B01C90ED20E5B0F1F2900D105211B
:104D40001F2A00D11D22072B00D1032304688E01E6
:104D5000278D0A491F2539403143218501682A40A2
:104D60000C8DAC4322430A8502681903108D044B55
:104D700003400B431385F0BD246080003FF8FFFF24
:104D8000FF8FFFFF02B4714649084900095C4900E2
:104D90008E4402BC7047C046002934D00123002253
:104DA00010B488422CD301242407A14204D28142AA
:104DB00002D209011B01F8E7E400A14204D28142BA
:104DC00002D249005B00F8E7884201D3401A1A4337
:104DD0004C08A04202D3001B5C0822438C08A0426E
:104DE00002D3001B9C082243CC08A04202D3001B24
:104DF000DC082243002803D01B0901D00909E3E79E
:104E0000101C10BC7047002801D00020C04307B41C
:104E1000024802A14018029003BDC046D90000001C
:104E20000029F0D003B5FFF7B9FF0EBC4243891A41
:104E30001847C046002941D010B4041C4C40A44679
:104E400001230022002900D54942002800D5404214
:104E500088422CD301242407A14204D2814202D2E9
:104E600009011B01F8E7E400A14204D2814202D209
:104E700049005B00F8E7884201D3401A1A434C0806
:104E8000A04202D3001B5C0822438C08A04202D33C
:104E9000001B9C082243CC08A04202D3001BDC0864
:104EA0002243002803D01B0901D00909E3E7101CA5
:104EB0006446002C00D5404210BC7047002806D044
:104EC00003DB0020C043400801E08020000607B457
:104ED000024802A14018029003BDC046190000001C
:104EE0000029EBD003B5FFF7A7FF0EBC4243891A98
:104EF0001847C0467047C04670B50E4B0E4D002493
:104F0000ED1AAD101E1CAC4204D0A300F358984714
:104F10000134F8E700F0BAF8084B094D0024ED1A07
:104F2000AD101E1CAC4204D0A300F35898470134C6
:104F3000F8E770BDEC000020EC000020EC00002041
:104F40000401002008B5034B011C186800F016F896
:104F500008BDC046E800002010B50023934203D0EE
:104F6000CC5CC4540133F9E710BD031C8218934292
:104F700002D019700133FAE77047000070B50323BF
:104F8000CD1C9D430835061C0C2D01D20C2501E0DB
:104F9000002D3FDB8D423DD3204B1C681A1C211C89
:104FA000002913D00868431B0DD40B2B02D90B60CA
:104FB000CC181EE08C4202D1636813601AE0486886
:104FC00060600C1C16E00C1C4968E9E7144C206872
:104FD000002803D1301C00F025F82060301C291C6B
:104FE00000F020F8431C15D0C41C03239C438442CA
:104FF0000AD12560201C0B300722231D9043C31AC1
:105000000BD05A42E25008E0211A301C00F00AF896
:105010000130EED10C233360002070BD34450020F8
:105020003045002038B5074C0023051C081C2360C0
:1050300000F012F8431C03D12368002B00D02B6032
:1050400038BDC0463C4500200023C25C0133002A25
:10505000FBD1581E70470000094A1368002B0CD082
:1050600018186946884202D81060181C7047054B12
:105070000C2201201A604042F8E7034B1360EFE76F
:10508000384500203C45002040450020F8B5C0468A
:10509000F8BC08BC9E467047F8B5C046F8BC08BCD2
:1050A0009E4670475468616E6B20596F750041646D
:1050B0006166727569742100020600040A0E080C0C
:1050C0000000000000000000C12B0000E9350000D6
:1050D000A5350000F9240000FB2400002525000070
:1050E0000525000015250000252400003D250000B1
:1050F0002B270000292700003F2500007D25000008
:10510000B92500000726000021260000A526000082
:1051100000000000003E5B4F5B3E3E6B4F6B3E1C51
:105120003E7C3E1C183C7E3C181C577D571C1C5E68
:105130007F5E1C00183C1800FFE7C3E7FF0018243F
:105140001800FFE7DBE7FF30483A060E26297929E9
:1051500026407F050507407F05253F5A3CE73C5A1E
:105160007F3E1C1C08081C1C3E7F14227F22145FFB
:105170005F005F5F06097F017F006689956A606056
:1051800060606094A2FFA29408047E040810207E50
:10519000201008082A1C08081C2A08081E101010D5
:1051A000100C1E0C1E0C30383E3830060E3E0E061B
:1051B000000000000000005F00000007000700146E
:1051C0007F147F14242A7F2A12231308646236492D
:1051D0005620500008070300001C22410000412215
:1051E0001C002A1C7F1C2A08083E0808008070301A
:1051F0000008080808080000606000201008040289
:105200003E5149453E00427F40007249494946218E
:1052100041494D331814127F1027454545393C4A02
:105220004949314121110907364949493646494919
:10523000291E000014000000403400000008142261
:1052400041141414141400412214080201590906CF
:105250003E415D594E7C1211127C7F494949363ED0
:10526000414141227F4141413E7F494949417F09B6
:105270000909013E414151737F0808087F00417FC1
:1052800041002040413F017F081422417F404040BF
:10529000407F021C027F7F0408107F3E4141413E57
:1052A0007F090909063E4151215E7F0919294626D9
:1052B0004949493203017F01033F4040403F1F20DD
:1052C00040201F3F4038403F6314081463030478B4
:1052D00004036159494D43007F41414102040810D4
:1052E00020004141417F040201020440404040400F
:1052F000000307080020545478407F28444438387D
:1053000044444428384444287F38545454180008EE
:105310007E090218A4A49C787F0804047800447DC8
:1053200040002040403D007F1028440000417F4065
:10533000007C047804787C080404783844444438B9
:10534000FC1824241818242418FC7C080404084899
:105350005454542404043F44243C4040207C1C20EA
:1053600040201C3C4030403C44281028444C909045
:10537000907C4464544C440008364100000077009F
:1053800000004136080002010204023C2623263CAC
:105390001EA1A161123A4040207A38545455592137
:1053A000555579412254547842215554784020541F
:1053B0005579400C1E52721239555555593954546D
:1053C000545939555454580000457C410002457DDC
:1053D000420001457C407D1211127DF0282528F005
:1053E0007C545545002054547C547C0A097F493232
:1053F000494949323A4444443A324A4848303A41A9
:1054000041217A3A42402078009DA0A07D3D424251
:10541000423D3D4040403D3C24FF2424487E4943DA
:10542000662B2FFC2F2BFF0929F620C0887E09034D
:1054300020545479410000447D413048484A323874
:105440004040227A007A0A0A727D0D19317D2629A0
:10545000292F28262929292630484D402038080898
:10546000080808080808382F10C8ACBA2F102834CC
:10547000FA00007B000008142A142222142A1408BF
:105480005500550055AA55AA55AAFF55FF55FF00CE
:105490000000FF00101010FF00141414FF00101083
:1054A000FF00FF1010F010F0141414FC001414F797
:1054B00000FF0000FF00FF1414F404FC1414171084
:1054C0001F10101F101F1414141F00101010F000D4
:1054D0000000001F101010101F10101010F010000E
:1054E0000000FF101010101010101010FF1000001E
:1054F00000FF140000FF00FF00001F10170000FC59
:1055000004F414141710171414F404F40000FF002A
:10551000F714141414141414F700F71414141714B3
:1055200010101F101F141414F4141010F010F000B9
:10553000001F101F0000001F14000000FC140000DA
:10554000F010F01010FF10FF141414FF14101010BE
:105550001F00000000F010FFFFFFFFFFF0F0F0F071
:10556000F0FFFFFF0000000000FFFF0F0F0F0F0F05
:105570003844443844FC4A4A4A347E020206060251
:105580007E027E0263554941633844443C04407EB8
:10559000201E2006027E020299A5E7A5991C2A4931
:1055A0002A1C4C7201724C304A4D4D3030487848BC
:1055B00030BC625A463D3E494949007E0101017EA8
:1055C0002A2A2A2A2A44445F444440514A444040FB
:1055D000444A51400000FF0103E080FF000008083A
:1055E0006B6B083612362436060F090F06000018BA
:1055F000180000001010003040FF0101001F0101E1
:105600001E00191D1712003C3C3C3C00000000002D
:105610000000000000000000C12B0000E935000080
:10562000CD2C0000212600003F2500007D25000034
:10563000A5260000B925000007260000192D00004E
:10564000000000000B000000020000000400000049
:10565000FF00FFFFFFFF0B00000000000A0000003A
:105660000200000004000000FF00FFFFFFFF0A002F
:10567000000000000E000000080000000400000010
:10568000FF00FFFFFFFF0E00000000000900000008
:10569000040000001C000000FF00010001000900E0
:1056A0000000000008000000040000001C000000D2
:1056B000FF00000000001000000000000F000000CC
:1056C000040000001C000000FF00010301030F00A4
:1056D0000000000014000000050000002C00000085
:1056E000FF0002000200040000000000150000009E
:1056F0000800000004000000FF00FFFFFFFF05009E
:105700000000000006000000040000001C00000073
:105710000600000100010600000000000700000074
:10572000040000001C000000070001010101070047
:105730000000000012000000040000001C00000037
:10574000FF00000300030200000000001000000042
:10575000040000001C000000FF0000020002000026
:105760000000000013000000050000002C000000F5
:10577000FF00030003000300000000001100000010
:10578000040000001C000000FF00010201020100F3
:105790000000000002000000010000000200000004
:1057A0000000FFFFFFFF02000100000008000000F2
:1057B00001000000180000000200000400040800BE
:1057C00001000000090000000100000018000000B6
:1057D00003000104010409000000000004000000AF
:1057E00001000000000000000400FFFFFFFF0400B4
:1057F00000000000050000000100000000000000A3
:105800000500FFFFFFFF050001000000020000008F
:1058100001000000000000000A00FFFFFFFF02007F
:10582000000000000B000000010000000600000066
:105830001300FFFFFFFF0B00000000000A00000044
:1058400001000000060000001200FFFFFFFF0A0039
:105850000000000008000000010000001E00000021
:10586000100000000000100000000000090000000F
:10587000010000001E0000001100010001000900ED
:105880000000000006000000010000001E000000F3
:1058900006000001000106000000000007000000F3
:1058A000010000001E0000000700010101010700C7
:1058B00000000000160000000200000004000000CC
:1058C000FF00FFFFFFFF06000000000017000000C0
:1058D0000200000004000000FF00FFFFFFFF0700C0
:1058E000000000000C0000000300000004000000A5
:1058F000FF00FFFFFFFF0C00010000000A00000096
:105900000300000004000000FF00FFFFFFFF0A008B
:10591000010000000B000000030000000400000074
:10592000FF00FFFFFFFF0B00000000001F00000052
:105930000B00000004000000FF00FFFFFFFFFF005E
:10594000000000001B0000000B000000040000002D
:10595000FF00FFFFFFFFFF00000000001C00000031
:105960000600000000000000FF00FFFFFFFFFF0037
:105970000000000018000000060000000000000009
:10598000FF00FFFFFFFFFF00000000001900000004
:105990000600000000000000FF00FFFFFFFFFF0007
:1059A00001000000030000000300000000000000F0
:1059B000FF00FFFFFFFFFF000100000016000000D6
:1059C0000300000000000000FF00FFFFFFFFFF00DA
:1059D00001000000170000000300000000000000AC
:1059E000FF00FFFFFFFFFF00000000000D000000B0
:1059F0000800000004000000FF00FFFFFFFF0D0093
:105A0000000000001E00000008000000040000006C
:105A1000FF00FFFFFFFFFF00000000000300000089
:105A20000100000002000000FF00FFFFFFFFFF0079
:105A30000000000002000000010000000200000061
:105A40001400FFFFFFFF0200000000000000000044
:105A5000F1390000E9350000D3390000E7390000D2
:105A6000DD390000C9390000A5390000CD3A000039
:105A7000B5390000A139000000000000000000005E
:105A8000113E0000F53C00003D3C0000553B00008D
:105A900041646166727569740000040309041201AF
:105AA0000002EF0201409A2313800001010203016A
:105AB0004D6574726F204D30204578707265737338
:105AC00000000000000000000000000000000000D6
:105AD000F94A0000254B00000D4B00005D4B000013
:105AE000414B0000194B0000F54A00000000000087
:105AF0004300000000000000000000000000000063
:105B00000000000000000000000000000000000095
:105B10000000000000000000000000000000000085
:105B20000000000000000000000000000000000075
:105B30000000000000000000000000000000000065
:105B40000000000000000000000000000000000055
:085B500000000000000000004D
:105B58000A08000040420F00FFFFFFFF000000009E
:105B68008300000002000000820000000000000026
:105B7800000000000000000000000000000000001D
:105B88000000000000C2010000000800FFFFFFFF46
:105B9800080B0002020200000904000001020200D2
:105BA800000524001001042402060524060001054E
:105BB80024010101070581031000100904010002F6
:105BC8000A000000070502024000000705830240A2
:105BD80000000000FFFFFFFF00000000F45A000073
:105BE800145B0000345B00000000000000000000AF
:105BF8000000000000000000F05A00000000000053
:105C0800000000000000000000000000000000008C
:105C1800000000000000000000000000000000007C
:105C2800000000000000000000000000000000006C
:105C3800000000000000000088000020DD200000B7
:105C480091210000712F0000D92F00003D4A00006B
:105C58001D4C0000B52000000000000000000000FE
:040000030000306D5C
:00000001FF
